{
    "contractName": "ComplaintRegistration",
    "abi": [
        {
            "inputs": [],
            "stateMutability": "nonpayable",
            "type": "constructor"
        },
        {
            "inputs": [
                {
                    "internalType": "address",
                    "name": "admin",
                    "type": "address"
                },
                {
                    "internalType": "uint256",
                    "name": "accType",
                    "type": "uint256"
                }
            ],
            "name": "addAdmin",
            "outputs": [],
            "stateMutability": "nonpayable",
            "type": "function"
        },
        {
            "inputs": [
                {
                    "internalType": "string",
                    "name": "_id",
                    "type": "string"
                },
                {
                    "internalType": "uint256",
                    "name": "_complaintType",
                    "type": "uint256"
                },
                {
                    "internalType": "string",
                    "name": "_name",
                    "type": "string"
                },
                {
                    "internalType": "string",
                    "name": "_email",
                    "type": "string"
                },
                {
                    "internalType": "uint256",
                    "name": "_phone",
                    "type": "uint256"
                },
                {
                    "internalType": "uint256",
                    "name": "_dob",
                    "type": "uint256"
                },
                {
                    "internalType": "string",
                    "name": "_addr",
                    "type": "string"
                },
                {
                    "internalType": "string",
                    "name": "_desc",
                    "type": "string"
                },
                {
                    "internalType": "string",
                    "name": "_nearestPoliceStation",
                    "type": "string"
                },
                {
                    "internalType": "string",
                    "name": "_proof",
                    "type": "string"
                },
                {
                    "internalType": "string",
                    "name": "_attachment",
                    "type": "string"
                }
            ],
            "name": "addComplaint",
            "outputs": [],
            "stateMutability": "nonpayable",
            "type": "function"
        },
        {
            "inputs": [],
            "name": "getComplaints",
            "outputs": [
                {
                    "internalType": "string[]",
                    "name": "",
                    "type": "string[]"
                }
            ],
            "stateMutability": "view",
            "type": "function"
        },
        {
            "inputs": [
                {
                    "internalType": "string",
                    "name": "_id",
                    "type": "string"
                }
            ],
            "name": "getDetails",
            "outputs": [
                {
                    "components": [
                        {
                            "internalType": "address",
                            "name": "user",
                            "type": "address"
                        },
                        {
                            "internalType": "uint256",
                            "name": "complaintType",
                            "type": "uint256"
                        },
                        {
                            "internalType": "string",
                            "name": "name",
                            "type": "string"
                        },
                        {
                            "internalType": "string",
                            "name": "email",
                            "type": "string"
                        },
                        {
                            "internalType": "uint256",
                            "name": "phone",
                            "type": "uint256"
                        },
                        {
                            "internalType": "uint256",
                            "name": "dob",
                            "type": "uint256"
                        },
                        {
                            "internalType": "string",
                            "name": "addr",
                            "type": "string"
                        },
                        {
                            "internalType": "string",
                            "name": "description",
                            "type": "string"
                        },
                        {
                            "internalType": "string",
                            "name": "nearestPoliceStation",
                            "type": "string"
                        },
                        {
                            "internalType": "string",
                            "name": "proof",
                            "type": "string"
                        },
                        {
                            "internalType": "string",
                            "name": "attachment",
                            "type": "string"
                        },
                        {
                            "internalType": "string",
                            "name": "message",
                            "type": "string"
                        },
                        {
                            "internalType": "uint256",
                            "name": "timestamp",
                            "type": "uint256"
                        },
                        {
                            "internalType": "bool",
                            "name": "status",
                            "type": "bool"
                        }
                    ],
                    "internalType": "struct ComplaintRegistration.Complaint",
                    "name": "",
                    "type": "tuple"
                }
            ],
            "stateMutability": "view",
            "type": "function"
        },
        {
            "inputs": [],
            "name": "getExpiredComplaints",
            "outputs": [
                {
                    "internalType": "string[]",
                    "name": "",
                    "type": "string[]"
                }
            ],
            "stateMutability": "view",
            "type": "function"
        },
        {
            "inputs": [
                {
                    "internalType": "uint256",
                    "name": "x",
                    "type": "uint256"
                }
            ],
            "name": "setThreshold",
            "outputs": [],
            "stateMutability": "nonpayable",
            "type": "function"
        },
        {
            "inputs": [
                {
                    "internalType": "string",
                    "name": "_id",
                    "type": "string"
                },
                {
                    "internalType": "string",
                    "name": "_msg",
                    "type": "string"
                },
                {
                    "internalType": "bool",
                    "name": "_status",
                    "type": "bool"
                }
            ],
            "name": "superAdminAction",
            "outputs": [],
            "stateMutability": "nonpayable",
            "type": "function"
        },
        {
            "inputs": [
                {
                    "internalType": "string",
                    "name": "_id",
                    "type": "string"
                },
                {
                    "internalType": "string",
                    "name": "_msg",
                    "type": "string"
                }
            ],
            "name": "updateMessage",
            "outputs": [],
            "stateMutability": "nonpayable",
            "type": "function"
        },
        {
            "inputs": [
                {
                    "internalType": "string",
                    "name": "_id",
                    "type": "string"
                },
                {
                    "internalType": "bool",
                    "name": "_status",
                    "type": "bool"
                },
                {
                    "internalType": "string",
                    "name": "_msg",
                    "type": "string"
                }
            ],
            "name": "validateComplaint",
            "outputs": [],
            "stateMutability": "nonpayable",
            "type": "function"
        },
        {
            "inputs": [
                {
                    "internalType": "string",
                    "name": "_id",
                    "type": "string"
                }
            ],
            "name": "viewComplaint",
            "outputs": [
                {
                    "internalType": "string",
                    "name": "",
                    "type": "string"
                },
                {
                    "internalType": "uint256",
                    "name": "",
                    "type": "uint256"
                },
                {
                    "internalType": "string",
                    "name": "",
                    "type": "string"
                },
                {
                    "internalType": "string",
                    "name": "",
                    "type": "string"
                },
                {
                    "internalType": "bool",
                    "name": "",
                    "type": "bool"
                },
                {
                    "internalType": "uint256",
                    "name": "",
                    "type": "uint256"
                }
            ],
            "stateMutability": "view",
            "type": "function"
        },
        {
            "inputs": [],
            "name": "viewComplaints",
            "outputs": [
                {
                    "internalType": "string[]",
                    "name": "",
                    "type": "string[]"
                }
            ],
            "stateMutability": "view",
            "type": "function"
        }
    ],
    "bytecode": "608060405234801561001057600080fd5b50600080546001600160a01b031916331790556001600655611e34806100376000396000f3fe608060405234801561001057600080fd5b50600436106100a95760003560e01c8063960bfe0411610071578063960bfe0414610127578063aec09c121461013a578063c868dd2814610142578063d66dbbec14610155578063d706c86314610168578063df1d891e1461018d57600080fd5b80631328fd8f146100ae57806338d03983146100d757806375a0f3a4146100ec5780637fcb29c9146101015780638ab8adc314610114575b600080fd5b6100c16100bc366004611567565b610195565b6040516100ce91906115f4565b60405180910390f35b6100df61074a565b6040516100ce919061174e565b6100ff6100fa3660046117b0565b610924565b005b6100ff61010f366004611814565b61097c565b6100ff610122366004611861565b610a7f565b6100ff6101353660046118d5565b610b52565b6100df610b81565b6100ff6101503660046118ee565b610e8c565b6100ff610163366004611a57565b6110a9565b61017b610176366004611567565b61114e565b6040516100ce96959493929190611acb565b6100df611357565b610212604051806101c0016040528060006001600160a01b031681526020016000815260200160608152602001606081526020016000815260200160008152602001606081526020016060815260200160608152602001606081526020016060815260200160608152602001600081526020016000151581525090565b61021b3361143b565b6102405760405162461bcd60e51b815260040161023790611b20565b60405180910390fd5b6008826040516102509190611b65565b9081526040805191829003602090810183206101c08401835280546001600160a01b03168452600181015491840191909152600281018054919284019161029690611b81565b80601f01602080910402602001604051908101604052809291908181526020018280546102c290611b81565b801561030f5780601f106102e45761010080835404028352916020019161030f565b820191906000526020600020905b8154815290600101906020018083116102f257829003601f168201915b5050505050815260200160038201805461032890611b81565b80601f016020809104026020016040519081016040528092919081815260200182805461035490611b81565b80156103a15780601f10610376576101008083540402835291602001916103a1565b820191906000526020600020905b81548152906001019060200180831161038457829003601f168201915b5050505050815260200160048201548152602001600582015481526020016006820180546103ce90611b81565b80601f01602080910402602001604051908101604052809291908181526020018280546103fa90611b81565b80156104475780601f1061041c57610100808354040283529160200191610447565b820191906000526020600020905b81548152906001019060200180831161042a57829003601f168201915b5050505050815260200160078201805461046090611b81565b80601f016020809104026020016040519081016040528092919081815260200182805461048c90611b81565b80156104d95780601f106104ae576101008083540402835291602001916104d9565b820191906000526020600020905b8154815290600101906020018083116104bc57829003601f168201915b505050505081526020016008820180546104f290611b81565b80601f016020809104026020016040519081016040528092919081815260200182805461051e90611b81565b801561056b5780601f106105405761010080835404028352916020019161056b565b820191906000526020600020905b81548152906001019060200180831161054e57829003601f168201915b5050505050815260200160098201805461058490611b81565b80601f01602080910402602001604051908101604052809291908181526020018280546105b090611b81565b80156105fd5780601f106105d2576101008083540402835291602001916105fd565b820191906000526020600020905b8154815290600101906020018083116105e057829003601f168201915b50505050508152602001600a8201805461061690611b81565b80601f016020809104026020016040519081016040528092919081815260200182805461064290611b81565b801561068f5780601f106106645761010080835404028352916020019161068f565b820191906000526020600020905b81548152906001019060200180831161067257829003601f168201915b50505050508152602001600b820180546106a890611b81565b80601f01602080910402602001604051908101604052809291908181526020018280546106d490611b81565b80156107215780601f106106f657610100808354040283529160200191610721565b820191906000526020600020905b81548152906001019060200180831161070457829003601f168201915b5050509183525050600c8201546020820152600d9091015460ff16151560409091015292915050565b6001546060906001600160a01b031633146107775760405162461bcd60e51b815260040161023790611bbb565b60075460009067ffffffffffffffff811115610795576107956114c4565b6040519080825280602002602001820160405280156107c857816020015b60608152602001906001900390816107b35790505b5090506000805b60075481101561091c576006546107e99062015180611c1b565b6008600783815481106107fe576107fe611c38565b906000526020600020016040516108159190611c4e565b9081526020016040518091039020600c01546108319190611cc4565b42111561090a576007818154811061084b5761084b611c38565b90600052602060002001805461086090611b81565b80601f016020809104026020016040519081016040528092919081815260200182805461088c90611b81565b80156108d95780601f106108ae576101008083540402835291602001916108d9565b820191906000526020600020905b8154815290600101906020018083116108bc57829003601f168201915b50505050508383815181106108f0576108f0611c38565b6020026020010181905250818061090690611cd7565b9250505b8061091481611cd7565b9150506107cf565b509091505090565b61092d3361143b565b6109495760405162461bcd60e51b815260040161023790611b20565b8060088360405161095a9190611b65565b9081526020016040518091039020600b0190816109779190611d3e565b505050565b6000546001600160a01b031633146109e25760405162461bcd60e51b8152602060048201526024808201527f4f6e6c79206f776e65722063616e206578656375746520746869732066756e636044820152633a34b7b760e11b6064820152608401610237565b80600103610a0957600180546001600160a01b0319166001600160a01b0384161790555050565b80600203610a3057600280546001600160a01b0319166001600160a01b0384161790555050565b80600303610a5757600380546001600160a01b0319166001600160a01b0384161790555050565b80600403610a7b57600480546001600160a01b0319166001600160a01b0384161790555b5050565b610a883361143b565b610aa45760405162461bcd60e51b815260040161023790611b20565b81600884604051610ab59190611b65565b908152604051908190036020019020600d01805491151560ff19909216919091179055811515600103610b4157604051806040016040528060138152602001722ab73232b91034b73b32b9ba34b3b0ba34b7b760691b815250600884604051610b1e9190611b65565b9081526020016040518091039020600b019081610b3b9190611d3e565b50505050565b80600884604051610b1e9190611b65565b6001546001600160a01b03163314610b7c5760405162461bcd60e51b815260040161023790611bbb565b600655565b6060610b8c3361143b565b610ba85760405162461bcd60e51b815260040161023790611b20565b6001546000906001600160a01b03163303610c95576007805480602002602001604051908101604052809291908181526020016000905b82821015610c8b578382906000526020600020018054610bfe90611b81565b80601f0160208091040260200160405190810160405280929190818152602001828054610c2a90611b81565b8015610c775780601f10610c4c57610100808354040283529160200191610c77565b820191906000526020600020905b815481529060010190602001808311610c5a57829003601f168201915b505050505081526020019060010190610bdf565b5050505091505090565b6002546001600160a01b03163303610caf57506001610cf9565b6003546001600160a01b03163303610cc957506002610cf9565b6004546001600160a01b03163303610ce357506003610cf9565b6005546001600160a01b03163303610cf9575060045b60075460009067ffffffffffffffff811115610d1757610d176114c4565b604051908082528060200260200182016040528015610d4a57816020015b6060815260200190600190039081610d355790505b5090506000805b600754811015610e835783600860078381548110610d7157610d71611c38565b90600052602060002001604051610d889190611c4e565b90815260200160405180910390206001015403610e715760078181548110610db257610db2611c38565b906000526020600020018054610dc790611b81565b80601f0160208091040260200160405190810160405280929190818152602001828054610df390611b81565b8015610e405780601f10610e1557610100808354040283529160200191610e40565b820191906000526020600020905b815481529060010190602001808311610e2357829003601f168201915b5050505050838381518110610e5757610e57611c38565b60200260200101819052508180610e6d90611cd7565b9250505b80610e7b81611cd7565b915050610d51565b50909392505050565b6000604051806020016040528060008152509050604051806101c00160405280336001600160a01b031681526020018c81526020018b81526020018a81526020018981526020018881526020018781526020018681526020018581526020018481526020018381526020018281526020014281526020016000151581525060088d604051610f1a9190611b65565b9081526040805160209281900383019020835181546001600160a01b0319166001600160a01b039091161781559183015160018301558201516002820190610f629082611d3e565b5060608201516003820190610f779082611d3e565b506080820151600482015560a0820151600582015560c08201516006820190610fa09082611d3e565b5060e08201516007820190610fb59082611d3e565b506101008201516008820190610fcb9082611d3e565b506101208201516009820190610fe19082611d3e565b50610140820151600a820190610ff79082611d3e565b50610160820151600b82019061100d9082611d3e565b50610180820151600c8201556101a090910151600d909101805460ff19169115159190911790553360009081526009602090815260408220805460018101825590835291200161105d8d82611d3e565b50600780546001810182556000919091527fa66cc928b5edb82af9bd49922954155ab7b0942694bea4ce44661d9a8736c6880161109a8d82611d3e565b50505050505050505050505050565b6001546001600160a01b031633146110d35760405162461bcd60e51b815260040161023790611bbb565b6001546001600160a01b031633146110fd5760405162461bcd60e51b815260040161023790611bbb565b600060088460405161110f9190611b65565b9081526040519081900360200190209050600b810161112e8482611d3e565b50600d8101805460ff19169215159290921790915542600c909101555050565b606060006060806000806008876040516111689190611b65565b90815260405190819003602001902054336001600160a01b03909116146111e25760405162461bcd60e51b815260206004820152602860248201527f4f6e6c79206f726967696e616c20617574686f722063616e207669657720636f6044820152676d706c61696e742160c01b6064820152608401610237565b60006008886040516111f49190611b65565b908152602001604051809103902090508781600101548260070183600b0184600d0160009054906101000a900460ff1685600c015483805461123590611b81565b80601f016020809104026020016040519081016040528092919081815260200182805461126190611b81565b80156112ae5780601f10611283576101008083540402835291602001916112ae565b820191906000526020600020905b81548152906001019060200180831161129157829003601f168201915b505050505093508280546112c190611b81565b80601f01602080910402602001604051908101604052809291908181526020018280546112ed90611b81565b801561133a5780601f1061130f5761010080835404028352916020019161133a565b820191906000526020600020905b81548152906001019060200180831161131d57829003601f168201915b505050505092509650965096509650965096505091939550919395565b336000908152600960209081526040808320805482518185028101850190935280835260609492939192909184015b828210156114325783829060005260206000200180546113a590611b81565b80601f01602080910402602001604051908101604052809291908181526020018280546113d190611b81565b801561141e5780601f106113f35761010080835404028352916020019161141e565b820191906000526020600020905b81548152906001019060200180831161140157829003601f168201915b505050505081526020019060010190611386565b50505050905090565b6001546000906001600160a01b038381169116148061146757506002546001600160a01b038381169116145b8061147f57506003546001600160a01b038381169116145b8061149757506004546001600160a01b038381169116145b806114af57506005546001600160a01b038381169116145b156114bc57506001919050565b506000919050565b634e487b7160e01b600052604160045260246000fd5b600082601f8301126114eb57600080fd5b813567ffffffffffffffff80821115611506576115066114c4565b604051601f8301601f19908116603f0116810190828211818310171561152e5761152e6114c4565b8160405283815286602085880101111561154757600080fd5b836020870160208301376000602085830101528094505050505092915050565b60006020828403121561157957600080fd5b813567ffffffffffffffff81111561159057600080fd5b61159c848285016114da565b949350505050565b60005b838110156115bf5781810151838201526020016115a7565b50506000910152565b600081518084526115e08160208601602086016115a4565b601f01601f19169290920160200192915050565b6020815261160e6020820183516001600160a01b03169052565b60208201516040820152600060408301516101c08060608501526116366101e08501836115c8565b91506060850151601f198086850301608087015261165484836115c8565b9350608087015160a087015260a087015160c087015260c08701519150808685030160e087015261168584836115c8565b935060e087015191506101008187860301818801526116a485846115c8565b9450808801519250506101208187860301818801526116c385846115c8565b9450808801519250506101408187860301818801526116e285846115c8565b94508088015192505061016081878603018188015261170185846115c8565b94508088015192505061018081878603018188015261172085846115c8565b908801516101a0888101919091528801518015158589015290945091506117449050565b5090949350505050565b6000602080830181845280855180835260408601915060408160051b870101925083870160005b828110156117a357603f198886030184526117918583516115c8565b94509285019290850190600101611775565b5092979650505050505050565b600080604083850312156117c357600080fd5b823567ffffffffffffffff808211156117db57600080fd5b6117e7868387016114da565b935060208501359150808211156117fd57600080fd5b5061180a858286016114da565b9150509250929050565b6000806040838503121561182757600080fd5b82356001600160a01b038116811461183e57600080fd5b946020939093013593505050565b8035801515811461185c57600080fd5b919050565b60008060006060848603121561187657600080fd5b833567ffffffffffffffff8082111561188e57600080fd5b61189a878388016114da565b94506118a86020870161184c565b935060408601359150808211156118be57600080fd5b506118cb868287016114da565b9150509250925092565b6000602082840312156118e757600080fd5b5035919050565b60008060008060008060008060008060006101608c8e03121561191057600080fd5b67ffffffffffffffff808d35111561192757600080fd5b6119348e8e358f016114da565b9b5060208d01359a508060408e0135111561194e57600080fd5b61195e8e60408f01358f016114da565b99508060608e0135111561197157600080fd5b6119818e60608f01358f016114da565b985060808d0135975060a08d013596508060c08e013511156119a257600080fd5b6119b28e60c08f01358f016114da565b95508060e08e013511156119c557600080fd5b6119d58e60e08f01358f016114da565b9450806101008e013511156119e957600080fd5b6119fa8e6101008f01358f016114da565b9350806101208e01351115611a0e57600080fd5b611a1f8e6101208f01358f016114da565b9250806101408e01351115611a3357600080fd5b50611a458d6101408e01358e016114da565b90509295989b509295989b9093969950565b600080600060608486031215611a6c57600080fd5b833567ffffffffffffffff80821115611a8457600080fd5b611a90878388016114da565b94506020860135915080821115611aa657600080fd5b50611ab3868287016114da565b925050611ac26040850161184c565b90509250925092565b60c081526000611ade60c08301896115c8565b8760208401528281036040840152611af681886115c8565b90508281036060840152611b0a81876115c8565b9415156080840152505060a00152949350505050565b60208082526025908201527f4f6e6c792061646d696e732063616e206578656375746520746869732066756e60408201526431ba34b7b760d91b606082015260800190565b60008251611b778184602087016115a4565b9190910192915050565b600181811c90821680611b9557607f821691505b602082108103611bb557634e487b7160e01b600052602260045260246000fd5b50919050565b6020808252602a908201527f4f6e6c792073757065722061646d696e2063616e2065786563757465207468696040820152693990333ab731ba34b7b760b11b606082015260800190565b634e487b7160e01b600052601160045260246000fd5b8082028115828204841417611c3257611c32611c05565b92915050565b634e487b7160e01b600052603260045260246000fd5b6000808354611c5c81611b81565b60018281168015611c745760018114611c8957611cb8565b60ff1984168752821515830287019450611cb8565b8760005260208060002060005b85811015611caf5781548a820152908401908201611c96565b50505082870194505b50929695505050505050565b80820180821115611c3257611c32611c05565b600060018201611ce957611ce9611c05565b5060010190565b601f82111561097757600081815260208120601f850160051c81016020861015611d175750805b601f850160051c820191505b81811015611d3657828155600101611d23565b505050505050565b815167ffffffffffffffff811115611d5857611d586114c4565b611d6c81611d668454611b81565b84611cf0565b602080601f831160018114611da15760008415611d895750858301515b600019600386901b1c1916600185901b178555611d36565b600085815260208120601f198616915b82811015611dd057888601518255948401946001909101908401611db1565b5085821015611dee5787850151600019600388901b60f8161c191681555b5050505050600190811b0190555056fea264697066735822122023e5f92f3b4b7c29366222a322fde67b9fd98e1aa4ac95b4e8022bb40b282e6764736f6c63430008130033",
    "sourcePath": "c:/Users/anukr/OneDrive/Desktop/chain-enforce/src/contract/Complaints.sol",
    "compiler": {
        "name": "solc",
        "version": "0.8.19+commit.7dd6d404"
    },
    "functionHashes": {
        "addAdmin(address,uint256)": "7fcb29c9",
        "addComplaint(string,uint256,string,string,uint256,uint256,string,string,string,string,string)": "c868dd28",
        "getComplaints()": "aec09c12",
        "getDetails(string)": "1328fd8f",
        "getExpiredComplaints()": "38d03983",
        "setThreshold(uint256)": "960bfe04",
        "superAdminAction(string,string,bool)": "d66dbbec",
        "updateMessage(string,string)": "75a0f3a4",
        "validateComplaint(string,bool,string)": "8ab8adc3",
        "viewComplaint(string)": "d706c863",
        "viewComplaints()": "df1d891e"
    },
    "gasEstimates": {
        "creation": {
            "codeDepositCost": "1546400",
            "executionCost": "47958",
            "totalCost": "1594358"
        },
        "external": {
            "addAdmin(address,uint256)": "26845",
            "addComplaint(string,uint256,string,string,uint256,uint256,string,string,string,string,string)": "infinite",
            "getComplaints()": "11153",
            "getDetails(string)": "infinite",
            "getExpiredComplaints()": "infinite",
            "setThreshold(uint256)": "24464",
            "superAdminAction(string,string,bool)": "infinite",
            "updateMessage(string,string)": "infinite",
            "validateComplaint(string,bool,string)": "infinite",
            "viewComplaint(string)": "infinite",
            "viewComplaints()": "infinite"
        },
        "internal": {
            "isAdmin(address)": "10801"
        }
    }
}